{
  "contractName": "HiveterminalInvoiceOwnershipProof",
  "abi": [
    {
      "constant": true,
      "inputs": [],
      "name": "name",
      "outputs": [
        {
          "name": "",
          "type": "string"
        }
      ],
      "payable": false,
      "stateMutability": "view",
      "type": "function"
    },
    {
      "constant": true,
      "inputs": [],
      "name": "version",
      "outputs": [
        {
          "name": "",
          "type": "string"
        }
      ],
      "payable": false,
      "stateMutability": "view",
      "type": "function"
    },
    {
      "constant": false,
      "inputs": [],
      "name": "acceptOwnership",
      "outputs": [],
      "payable": false,
      "stateMutability": "nonpayable",
      "type": "function"
    },
    {
      "constant": true,
      "inputs": [],
      "name": "owner",
      "outputs": [
        {
          "name": "",
          "type": "address"
        }
      ],
      "payable": false,
      "stateMutability": "view",
      "type": "function"
    },
    {
      "constant": true,
      "inputs": [],
      "name": "newOwner",
      "outputs": [
        {
          "name": "",
          "type": "address"
        }
      ],
      "payable": false,
      "stateMutability": "view",
      "type": "function"
    },
    {
      "constant": false,
      "inputs": [
        {
          "name": "_newOwner",
          "type": "address"
        }
      ],
      "name": "transferOwnership",
      "outputs": [],
      "payable": false,
      "stateMutability": "nonpayable",
      "type": "function"
    },
    {
      "anonymous": false,
      "inputs": [
        {
          "indexed": true,
          "name": "txHash",
          "type": "bytes32"
        },
        {
          "indexed": false,
          "name": "data",
          "type": "string"
        }
      ],
      "name": "AddInvoiceProof",
      "type": "event"
    },
    {
      "anonymous": false,
      "inputs": [
        {
          "indexed": false,
          "name": "_prevOwner",
          "type": "address"
        },
        {
          "indexed": false,
          "name": "_newOwner",
          "type": "address"
        }
      ],
      "name": "OwnerUpdate",
      "type": "event"
    },
    {
      "constant": false,
      "inputs": [
        {
          "name": "txHash",
          "type": "bytes32"
        },
        {
          "name": "data",
          "type": "string"
        }
      ],
      "name": "add",
      "outputs": [],
      "payable": false,
      "stateMutability": "nonpayable",
      "type": "function"
    },
    {
      "constant": true,
      "inputs": [
        {
          "name": "txHash",
          "type": "bytes32"
        }
      ],
      "name": "read",
      "outputs": [
        {
          "name": "data",
          "type": "string"
        }
      ],
      "payable": false,
      "stateMutability": "view",
      "type": "function"
    }
  ],
  "bytecode": "0x6080604052606060405190810160405280602481526020017f486976657465726d696e616c20496e766f696365204f776e657273686970205081526020017f726f6f660000000000000000000000000000000000000000000000000000000081525060029080519060200190610076929190610108565b506040805190810160405280600381526020017f302e310000000000000000000000000000000000000000000000000000000000815250600390805190602001906100c2929190610108565b50336000806101000a81548173ffffffffffffffffffffffffffffffffffffffff021916908373ffffffffffffffffffffffffffffffffffffffff1602179055506101ad565b828054600181600116156101000203166002900490600052602060002090601f016020900481019282601f1061014957805160ff1916838001178555610177565b82800160010185558215610177579182015b8281111561017657825182559160200191906001019061015b565b5b5090506101849190610188565b5090565b6101aa91905b808211156101a657600081600090555060010161018e565b5090565b90565b610c9f806101bc6000396000f30060806040526004361061008e576000357c0100000000000000000000000000000000000000000000000000000000900463ffffffff16806306fdde031461009357806354fd4d501461012357806361da1439146101b357806379ba50971461025d5780638da5cb5b14610274578063a2fa871b146102cb578063d4ee1d9014610342578063f2fde38b14610399575b600080fd5b34801561009f57600080fd5b506100a86103dc565b6040518080602001828103825283818151815260200191508051906020019080838360005b838110156100e85780820151818401526020810190506100cd565b50505050905090810190601f1680156101155780820380516001836020036101000a031916815260200191505b509250505060405180910390f35b34801561012f57600080fd5b5061013861047a565b6040518080602001828103825283818151815260200191508051906020019080838360005b8381101561017857808201518184015260208101905061015d565b50505050905090810190601f1680156101a55780820380516001836020036101000a031916815260200191505b509250505060405180910390f35b3480156101bf57600080fd5b506101e26004803603810190808035600019169060200190929190505050610518565b6040518080602001828103825283818151815260200191508051906020019080838360005b83811015610222578082015181840152602081019050610207565b50505050905090810190601f16801561024f5780820380516001836020036101000a031916815260200191505b509250505060405180910390f35b34801561026957600080fd5b506102726105d5565b005b34801561028057600080fd5b506102896107ae565b604051808273ffffffffffffffffffffffffffffffffffffffff1673ffffffffffffffffffffffffffffffffffffffff16815260200191505060405180910390f35b3480156102d757600080fd5b506103406004803603810190808035600019169060200190929190803590602001908201803590602001908080601f01602080910402602001604051908101604052809392919081815260200183838082843782019150505050505091929192905050506107d3565b005b34801561034e57600080fd5b50610357610a21565b604051808273ffffffffffffffffffffffffffffffffffffffff1673ffffffffffffffffffffffffffffffffffffffff16815260200191505060405180910390f35b3480156103a557600080fd5b506103da600480360381019080803573ffffffffffffffffffffffffffffffffffffffff169060200190929190505050610a47565b005b60028054600181600116156101000203166002900480601f0160208091040260200160405190810160405280929190818152602001828054600181600116156101000203166002900480156104725780601f1061044757610100808354040283529160200191610472565b820191906000526020600020905b81548152906001019060200180831161045557829003601f168201915b505050505081565b60038054600181600116156101000203166002900480601f0160208091040260200160405190810160405280929190818152602001828054600181600116156101000203166002900480156105105780601f106104e557610100808354040283529160200191610510565b820191906000526020600020905b8154815290600101906020018083116104f357829003601f168201915b505050505081565b60606004600083600019166000191681526020019081526020016000208054600181600116156101000203166002900480601f0160208091040260200160405190810160405280929190818152602001828054600181600116156101000203166002900480156105c95780601f1061059e576101008083540402835291602001916105c9565b820191906000526020600020905b8154815290600101906020018083116105ac57829003601f168201915b50505050509050919050565b600160009054906101000a900473ffffffffffffffffffffffffffffffffffffffff1673ffffffffffffffffffffffffffffffffffffffff163373ffffffffffffffffffffffffffffffffffffffff1614151561062e57fe5b7f343765429aea5a34b3ff6a3785a98a5abb2597aca87bfbb58632c173d585373a6000809054906101000a900473ffffffffffffffffffffffffffffffffffffffff16600160009054906101000a900473ffffffffffffffffffffffffffffffffffffffff16604051808373ffffffffffffffffffffffffffffffffffffffff1673ffffffffffffffffffffffffffffffffffffffff1681526020018273ffffffffffffffffffffffffffffffffffffffff1673ffffffffffffffffffffffffffffffffffffffff1681526020019250505060405180910390a1600160009054906101000a900473ffffffffffffffffffffffffffffffffffffffff166000806101000a81548173ffffffffffffffffffffffffffffffffffffffff021916908373ffffffffffffffffffffffffffffffffffffffff1602179055506000600160006101000a81548173ffffffffffffffffffffffffffffffffffffffff021916908373ffffffffffffffffffffffffffffffffffffffff160217905550565b6000809054906101000a900473ffffffffffffffffffffffffffffffffffffffff1681565b6000809054906101000a900473ffffffffffffffffffffffffffffffffffffffff1673ffffffffffffffffffffffffffffffffffffffff163373ffffffffffffffffffffffffffffffffffffffff1614151561082b57fe5b60008151141515156108a5576040517f08c379a000000000000000000000000000000000000000000000000000000000815260040180806020018281038252600a8152602001807f456d70747920646174610000000000000000000000000000000000000000000081525060200191505060405180910390fd5b600060046000846000191660001916815260200190815260200160002080546001816001161561010002031660029004905014151561094c576040517f08c379a000000000000000000000000000000000000000000000000000000000815260040180806020018281038252600d8152602001807f457869737473207478486173680000000000000000000000000000000000000081525060200191505060405180910390fd5b80600460008460001916600019168152602001908152602001600020908051906020019061097b929190610bce565b5081600019167f391973a39b0f83f2a4b4ae55950132450591dfc4891397b715a31a6de2ad3c4f826040518080602001828103825283818151815260200191508051906020019080838360005b838110156109e35780820151818401526020810190506109c8565b50505050905090810190601f168015610a105780820380516001836020036101000a031916815260200191505b509250505060405180910390a25050565b600160009054906101000a900473ffffffffffffffffffffffffffffffffffffffff1681565b6000809054906101000a900473ffffffffffffffffffffffffffffffffffffffff1673ffffffffffffffffffffffffffffffffffffffff163373ffffffffffffffffffffffffffffffffffffffff16141515610a9f57fe5b6000809054906101000a900473ffffffffffffffffffffffffffffffffffffffff1673ffffffffffffffffffffffffffffffffffffffff168173ffffffffffffffffffffffffffffffffffffffff1614151515610b8a576040517f08c379a000000000000000000000000000000000000000000000000000000000815260040180806020018281038252602a8152602001807f546865206e6577206f776e6572206973207468652073616d65206c696b65207481526020017f6865206f6c64206f6e650000000000000000000000000000000000000000000081525060400191505060405180910390fd5b80600160006101000a81548173ffffffffffffffffffffffffffffffffffffffff021916908373ffffffffffffffffffffffffffffffffffffffff16021790555050565b828054600181600116156101000203166002900490600052602060002090601f016020900481019282601f10610c0f57805160ff1916838001178555610c3d565b82800160010185558215610c3d579182015b82811115610c3c578251825591602001919060010190610c21565b5b509050610c4a9190610c4e565b5090565b610c7091905b80821115610c6c576000816000905550600101610c54565b5090565b905600a165627a7a723058201facb15299f60fc4db6010ea4646747b1e06335b001a23646992b462f2c7bb810029",
  "source": "/**\n * Hiveterminal Invoice Ownership Proof\n *\n * Copyright © 2019 by Hive Project Ltd.\n *\n * Licensed under the Apache License, Version 2.0 (the \"License\").\n * You may not use this file except in compliance with the License.\n *\n * Unless required by applicable law or agreed to in writing, software\n * distributed under the License is distributed on an \"AS IS\" BASIS,\n * WITHOUT WARRANTIES OR CONDITIONS OF ANY KIND (express or implied).\n*/\n\npragma solidity 0.4.24;\n\nimport \"../helpers/Ownership.sol\";\n\ncontract HiveterminalInvoiceOwnershipProof is Ownership {\n    string public name = \"Hiveterminal Invoice Ownership Proof\";\n    string public version = \"0.1\";\n    mapping(bytes32 => string) private invoicesProof;\n\n    event AddInvoiceProof(bytes32 indexed txHash, string data);\n\n    function add(bytes32 txHash, string data) public onlyOwner {\n        require(bytes(data).length != 0, \"Empty data\");\n        require(bytes(invoicesProof[txHash]).length == 0, \"Exists txHash\");\n        invoicesProof[txHash] = data;\n        emit AddInvoiceProof(txHash, data);\n    }\n    \n    function read(bytes32 txHash) public view returns(string data) {\n        return invoicesProof[txHash];\n    }\n}",
  "sourcePath": "/Users/dimitarjelev/Projects/hive-contracts/contracts/invoices/HiveterminalInvoiceOwnershipProof.sol",
  "compiler": {
    "name": "solc",
    "version": "0.4.24+commit.e67f0147.Emscripten.clang"
  },
  "schemaVersion": "2.0.1",
  "updatedAt": "2019-02-28T14:59:53.259Z"
}